{
  "contractName": "TodoList",
  "abi": [
    {
      "constant": true,
      "inputs": [
        {
          "name": "",
          "type": "uint256"
        }
      ],
      "name": "tasks",
      "outputs": [
        {
          "name": "id",
          "type": "uint256"
        },
        {
          "name": "content",
          "type": "string"
        },
        {
          "name": "completed",
          "type": "bool"
        }
      ],
      "payable": false,
      "stateMutability": "view",
      "type": "function",
      "signature": "0x8d977672"
    },
    {
      "constant": true,
      "inputs": [],
      "name": "taskCount",
      "outputs": [
        {
          "name": "",
          "type": "uint256"
        }
      ],
      "payable": false,
      "stateMutability": "view",
      "type": "function",
      "signature": "0xb6cb58a5"
    },
    {
      "inputs": [],
      "payable": false,
      "stateMutability": "nonpayable",
      "type": "constructor",
      "signature": "constructor"
    },
    {
      "anonymous": false,
      "inputs": [
        {
          "indexed": false,
          "name": "id",
          "type": "uint256"
        },
        {
          "indexed": false,
          "name": "content",
          "type": "string"
        },
        {
          "indexed": false,
          "name": "completed",
          "type": "bool"
        }
      ],
      "name": "TaskCreated",
      "type": "event",
      "signature": "0x05d0fb833127fc08168556d0e7ca9554fc3f6bc843b3b7d2bf1c35aea6bab660"
    },
    {
      "anonymous": false,
      "inputs": [
        {
          "indexed": false,
          "name": "id",
          "type": "uint256"
        },
        {
          "indexed": false,
          "name": "completed",
          "type": "bool"
        }
      ],
      "name": "TaskChangeStatus",
      "type": "event",
      "signature": "0xafa3dba6ccf598023780bd7c892dd3182c81866ba2a1c0010add45da6baed4a8"
    },
    {
      "constant": false,
      "inputs": [
        {
          "name": "_content",
          "type": "string"
        }
      ],
      "name": "createTask",
      "outputs": [],
      "payable": false,
      "stateMutability": "nonpayable",
      "type": "function",
      "signature": "0x111002aa"
    },
    {
      "constant": false,
      "inputs": [
        {
          "name": "_id",
          "type": "uint256"
        }
      ],
      "name": "changeStatus",
      "outputs": [],
      "payable": false,
      "stateMutability": "nonpayable",
      "type": "function",
      "signature": "0xe8025d77"
    }
  ],
  "bytecode": "0x60806040526000805534801561001457600080fd5b5060408051808201909152600a81527f4669727374207461736b00000000000000000000000000000000000000000000602082015261005b90640100000000610060810204565b61021c565b600080546001908101808355604080516060810182528281526020808201878152828401879052938652848152918520815181559251805191946100aa9390850192910190610181565b5060408201518160020160006101000a81548160ff0219169083151502179055509050507f05d0fb833127fc08168556d0e7ca9554fc3f6bc843b3b7d2bf1c35aea6bab6606000548383604051808481526020018060200183151515158152602001828103825284818151815260200191508051906020019080838360005b83811015610141578181015183820152602001610129565b50505050905090810190601f16801561016e5780820380516001836020036101000a031916815260200191505b5094505050505060405180910390a15050565b828054600181600116156101000203166002900490600052602060002090601f016020900481019282601f106101c257805160ff19168380011785556101ef565b828001600101855582156101ef579182015b828111156101ef5782518255916020019190600101906101d4565b506101fb9291506101ff565b5090565b61021991905b808211156101fb5760008155600101610205565b90565b6106418061022b6000396000f3fe6080604052600436106100615763ffffffff7c0100000000000000000000000000000000000000000000000000000000600035041663111002aa81146100665780638d9776721461011b578063b6cb58a5146101cf578063e8025d77146101f6575b600080fd5b34801561007257600080fd5b506101196004803603602081101561008957600080fd5b8101906020810181356401000000008111156100a457600080fd5b8201836020820111156100b657600080fd5b803590602001918460018302840111640100000000831117156100d857600080fd5b91908080601f016020809104026020016040519081016040528093929190818152602001838380828437600092019190915250929550610220945050505050565b005b34801561012757600080fd5b506101456004803603602081101561013e57600080fd5b5035610341565b604051808481526020018060200183151515158152602001828103825284818151815260200191508051906020019080838360005b8381101561019257818101518382015260200161017a565b50505050905090810190601f1680156101bf5780820380516001836020036101000a031916815260200191505b5094505050505060405180910390f35b3480156101db57600080fd5b506101e46103f0565b60408051918252519081900360200190f35b34801561020257600080fd5b506101196004803603602081101561021957600080fd5b50356103f6565b6000805460019081018083556040805160608101825282815260208082018781528284018790529386528481529185208151815592518051919461026a9390850192910190610556565b5060408201518160020160006101000a81548160ff0219169083151502179055509050507f05d0fb833127fc08168556d0e7ca9554fc3f6bc843b3b7d2bf1c35aea6bab6606000548383604051808481526020018060200183151515158152602001828103825284818151815260200191508051906020019080838360005b838110156103015781810151838201526020016102e9565b50505050905090810190601f16801561032e5780820380516001836020036101000a031916815260200191505b5094505050505060405180910390a15050565b600160208181526000928352604092839020805481840180548651600296821615610100026000190190911695909504601f810185900485028601850190965285855290949193929091908301828280156103dd5780601f106103b2576101008083540402835291602001916103dd565b820191906000526020600020905b8154815290600101906020018083116103c057829003601f168201915b5050506002909301549192505060ff1683565b60005481565b6103fe6105d4565b60008281526001602081815260409283902083516060810185528154815281840180548651600296821615610100026000190190911695909504601f810185900485028601850190965285855290949193858401939092908301828280156104a75780601f1061047c576101008083540402835291602001916104a7565b820191906000526020600020905b81548152906001019060200180831161048a57829003601f168201915b50505091835250506002919091015460ff161515602091820152604080830180511590526000858152600180845291902083518155838301518051949550859491936104f893850192910190610556565b50604091820151600291909101805460ff1916911515919091179055818101518151848152901515602082015281517fafa3dba6ccf598023780bd7c892dd3182c81866ba2a1c0010add45da6baed4a8929181900390910190a15050565b828054600181600116156101000203166002900490600052602060002090601f016020900481019282601f1061059757805160ff19168380011785556105c4565b828001600101855582156105c4579182015b828111156105c45782518255916020019190600101906105a9565b506105d09291506105f8565b5090565b60606040519081016040528060008152602001606081526020016000151581525090565b61061291905b808211156105d057600081556001016105fe565b9056fea165627a7a723058204a95354c3e48ca74004aa2aad3ce4d9b67aa579fe53e5c43af02d1b3b09d3f450029",
  "source": "pragma solidity ^0.5.0;\r\n\r\ncontract TodoList {\r\n    uint public taskCount = 0;\r\n\r\n    struct Task {\r\n        uint id;\r\n        string content;\r\n        bool completed;\r\n    }\r\n\r\n    mapping(uint => Task) public tasks;\r\n\r\n    event TaskCreated(\r\n        uint id,\r\n        string content,\r\n        bool completed\r\n        );\r\n\r\n    event TaskChangeStatus(\r\n        uint id,\r\n        bool completed\r\n        );\r\n\r\n    constructor() public {\r\n        createTask(\"First task\");\r\n    } \r\n\r\n    function createTask(string memory _content) public {\r\n        bool statusTask = false;\r\n\r\n        taskCount ++;\r\n        tasks[taskCount] = Task(taskCount, _content, statusTask);\r\n        emit TaskCreated(taskCount, _content, statusTask);\r\n    }\r\n\r\n    function changeStatus(uint _id) public {\r\n        Task memory _task = tasks[_id];\r\n        _task.completed = !_task.completed;\r\n        tasks[_id] = _task;\r\n        emit TaskChangeStatus(_id, _task.completed);\r\n    }\r\n\r\n   \r\n\r\n}\r\n",
  "sourcePath": "C:/Users/workuser/Documents/projects/solidity/eth-todo-list/contracts/TodoList.sol",
  "compiler": {
    "name": "solc",
    "version": "0.5.0+commit.1d4f565a.Emscripten.clang"
  },
  "schemaVersion": "3.0.1",
  "updatedAt": "2022-05-01T20:27:44.274Z",
  "devdoc": {
    "methods": {}
  },
  "userdoc": {
    "methods": {}
  }
}